{
  "contractName": "SmileyToken",
  "abi": [
    {
      "constant": true,
      "inputs": [
        {
          "name": "",
          "type": "uint256"
        }
      ],
      "name": "users",
      "outputs": [
        {
          "name": "name",
          "type": "string"
        },
        {
          "name": "age",
          "type": "uint256"
        }
      ],
      "payable": false,
      "stateMutability": "view",
      "type": "function"
    },
    {
      "constant": false,
      "inputs": [
        {
          "name": "_name",
          "type": "string"
        },
        {
          "name": "_age",
          "type": "uint256"
        }
      ],
      "name": "createUser",
      "outputs": [],
      "payable": false,
      "stateMutability": "nonpayable",
      "type": "function"
    }
  ],
  "bytecode": "0x608060405234801561001057600080fd5b5061026c806100206000396000f30060806040526004361061004c576000357c0100000000000000000000000000000000000000000000000000000000900463ffffffff168063121ef24314610051578063365b98b2146100c4575b600080fd5b34801561005d57600080fd5b506100c2600480360381019080803590602001908201803590602001908080601f016020809104026020016040519081016040528093929190818152602001838380828437820191505050505050919291929080359060200190929190505050610171565b005b3480156100d057600080fd5b506100ef60048036038101908080359060200190929190505050610175565b6040518080602001838152602001828103825284818151815260200191508051906020019080838360005b8381101561013557808201518184015260208101905061011a565b50505050905090810190601f1680156101625780820380516001836020036101000a031916815260200191505b50935050505060405180910390f35b5050565b60008181548110151561018457fe5b9060005260206000209060020201600091509050806000018054600181600116156101000203166002900480601f0160208091040260200160405190810160405280929190818152602001828054600181600116156101000203166002900480156102305780601f1061020557610100808354040283529160200191610230565b820191906000526020600020905b81548152906001019060200180831161021357829003601f168201915b50505050509080600101549050825600a165627a7a723058205f85579b0bed766add46004571c1f98bc6f7298f5983a1130745939bf1df51160029",
  "source": "pragma solidity ^0.4.20;\r\n\r\ncontract SmileyToken\r\n{\r\n    struct User\r\n    {\r\n        string name;\r\n        uint age;\r\n    }\r\n\r\n    User[] public users;\r\n    \r\n    function createUser(string _name, uint _age) public\r\n    {\r\n      \r\n    }\r\n\r\n\r\n\r\n}",
  "sourcePath": "C:\\Users\\User\\Documents\\Projects\\Ethereum\\Ethereum-Dev\\Smiley\\contracts\\SmileyToken.sol",
  "compiler": {
    "name": "solc",
    "version": "0.4.24+commit.e67f0147.Emscripten.clang"
  },
  "schemaVersion": "2.0.1",
  "updatedAt": "2018-11-17T13:02:46.209Z"
}