{
  "contractName": "SmileyContract",
  "abi": [
    {
      "constant": true,
      "inputs": [
        {
          "name": "",
          "type": "uint256"
        }
      ],
      "name": "users",
      "outputs": [
        {
          "name": "name",
          "type": "string"
        },
        {
          "name": "age",
          "type": "uint8"
        },
        {
          "name": "points",
          "type": "uint32"
        },
        {
          "name": "level",
          "type": "uint32"
        },
        {
          "name": "readyTime",
          "type": "uint32"
        }
      ],
      "payable": false,
      "stateMutability": "view",
      "type": "function"
    },
    {
      "constant": true,
      "inputs": [],
      "name": "owner",
      "outputs": [
        {
          "name": "",
          "type": "address"
        }
      ],
      "payable": false,
      "stateMutability": "view",
      "type": "function"
    },
    {
      "constant": true,
      "inputs": [
        {
          "name": "",
          "type": "address"
        }
      ],
      "name": "UserID",
      "outputs": [
        {
          "name": "",
          "type": "uint256"
        }
      ],
      "payable": false,
      "stateMutability": "view",
      "type": "function"
    },
    {
      "inputs": [],
      "payable": false,
      "stateMutability": "nonpayable",
      "type": "constructor"
    },
    {
      "anonymous": false,
      "inputs": [
        {
          "indexed": false,
          "name": "name",
          "type": "string"
        },
        {
          "indexed": false,
          "name": "age",
          "type": "uint8"
        }
      ],
      "name": "NewUser",
      "type": "event"
    },
    {
      "constant": false,
      "inputs": [
        {
          "name": "_name",
          "type": "string"
        },
        {
          "name": "_age",
          "type": "uint8"
        }
      ],
      "name": "createUser",
      "outputs": [],
      "payable": false,
      "stateMutability": "nonpayable",
      "type": "function"
    },
    {
      "constant": true,
      "inputs": [],
      "name": "getUserByAddress",
      "outputs": [
        {
          "name": "",
          "type": "string"
        },
        {
          "name": "",
          "type": "uint8"
        }
      ],
      "payable": false,
      "stateMutability": "view",
      "type": "function"
    }
  ],
  "bytecode": "0x608060405234801561001057600080fd5b50336000806101000a81548173ffffffffffffffffffffffffffffffffffffffff021916908373ffffffffffffffffffffffffffffffffffffffff160217905550610940806100606000396000f30060806040526004361061006d576000357c0100000000000000000000000000000000000000000000000000000000900463ffffffff168063365b98b2146100725780634073b1321461015e57806346096130146101fb5780638da5cb5b14610271578063b097b90a146102c8575b600080fd5b34801561007e57600080fd5b5061009d6004803603810190808035906020019092919050505061031f565b60405180806020018660ff1660ff1681526020018563ffffffff1663ffffffff1681526020018463ffffffff1663ffffffff1681526020018363ffffffff1663ffffffff168152602001828103825287818151815260200191508051906020019080838360005b8381101561011f578082015181840152602081019050610104565b50505050905090810190601f16801561014c5780820380516001836020036101000a031916815260200191505b50965050505050505060405180910390f35b34801561016a57600080fd5b50610173610439565b60405180806020018360ff1660ff168152602001828103825284818151815260200191508051906020019080838360005b838110156101bf5780820151818401526020810190506101a4565b50505050905090810190601f1680156101ec5780820380516001836020036101000a031916815260200191505b50935050505060405180910390f35b34801561020757600080fd5b5061026f600480360381019080803590602001908201803590602001908080601f0160208091040260200160405190810160405280939291908181526020018383808284378201915050505050509192919290803560ff16906020019092919050505061057c565b005b34801561027d57600080fd5b50610286610832565b604051808273ffffffffffffffffffffffffffffffffffffffff1673ffffffffffffffffffffffffffffffffffffffff16815260200191505060405180910390f35b3480156102d457600080fd5b50610309600480360381019080803573ffffffffffffffffffffffffffffffffffffffff169060200190929190505050610857565b6040518082815260200191505060405180910390f35b60018181548110151561032e57fe5b9060005260206000209060020201600091509050806000018054600181600116156101000203166002900480601f0160208091040260200160405190810160405280929190818152602001828054600181600116156101000203166002900480156103da5780601f106103af576101008083540402835291602001916103da565b820191906000526020600020905b8154815290600101906020018083116103bd57829003601f168201915b5050505050908060010160009054906101000a900460ff16908060010160019054906101000a900463ffffffff16908060010160059054906101000a900463ffffffff16908060010160099054906101000a900463ffffffff16905085565b606060008060606000600260003373ffffffffffffffffffffffffffffffffffffffff1673ffffffffffffffffffffffffffffffffffffffff16815260200190815260200160002054925060018381548110151561049357fe5b90600052602060002090600202016000018054600181600116156101000203166002900480601f0160208091040260200160405190810160405280929190818152602001828054600181600116156101000203166002900480156105385780601f1061050d57610100808354040283529160200191610538565b820191906000526020600020905b81548152906001019060200180831161051b57829003601f168201915b5050505050915060018381548110151561054e57fe5b906000526020600020906002020160010160009054906101000a900460ff1690508181945094505050509091565b600080600360003373ffffffffffffffffffffffffffffffffffffffff1673ffffffffffffffffffffffffffffffffffffffff168152602001908152602001600020541415156105cb57600080fd5b60018060a0604051908101604052808681526020018560ff168152602001600063ffffffff168152602001600063ffffffff1681526020014263ffffffff1681525090806001815401808255809150509060018203906000526020600020906002020160009091929091909150600082015181600001908051906020019061065492919061086f565b5060208201518160010160006101000a81548160ff021916908360ff16021790555060408201518160010160016101000a81548163ffffffff021916908363ffffffff16021790555060608201518160010160056101000a81548163ffffffff021916908363ffffffff16021790555060808201518160010160096101000a81548163ffffffff021916908363ffffffff160217905550505003905080600260003373ffffffffffffffffffffffffffffffffffffffff1673ffffffffffffffffffffffffffffffffffffffff16815260200190815260200160002081905550600360003373ffffffffffffffffffffffffffffffffffffffff1673ffffffffffffffffffffffffffffffffffffffff168152602001908152602001600020600081548092919060010191905055507f2caeb6d6d613aa1e496d28e3f8ff81f87b13b87af489a5718df2c9bd001394b0838360405180806020018360ff1660ff168152602001828103825284818151815260200191508051906020019080838360005b838110156107f25780820151818401526020810190506107d7565b50505050905090810190601f16801561081f5780820380516001836020036101000a031916815260200191505b50935050505060405180910390a1505050565b6000809054906101000a900473ffffffffffffffffffffffffffffffffffffffff1681565b60026020528060005260406000206000915090505481565b828054600181600116156101000203166002900490600052602060002090601f016020900481019282601f106108b057805160ff19168380011785556108de565b828001600101855582156108de579182015b828111156108dd5782518255916020019190600101906108c2565b5b5090506108eb91906108ef565b5090565b61091191905b8082111561090d5760008160009055506001016108f5565b5090565b905600a165627a7a72305820ad06c3ee5d4e86f4baf2d7b90f7f15a51446a15eb2c11206f1a6eaf00b7c41d10029",
  "source": "pragma solidity ^0.4.24;\r\n\r\ncontract SmileyContract\r\n{\r\n    event NewUser(string name, uint8 age);\r\n\r\n    address public owner;\r\n    struct User\r\n    {\r\n        string name;\r\n        uint8 age;\r\n        uint32 points;\r\n        uint32 level;\r\n        uint32 readyTime;\r\n    }\r\n\r\n    User[] public users;\r\n    mapping(address => uint) public UserID;\r\n    mapping(address => uint) UserCount;\r\n    //mapping(address => uint) Donations;\r\n\r\n    constructor() public\r\n    {\r\n        owner = msg.sender;\r\n    }\r\n\r\n    function createUser(string memory _name, uint8 _age) public\r\n    {\r\n        require(UserCount[msg.sender] == 0);\r\n        uint id = users.push(User(_name, _age, 0, 0, uint32(now))) - 1;\r\n        UserID[msg.sender] = id;\r\n        UserCount[msg.sender]++;\r\n        emit NewUser(_name, _age);\r\n    }\r\n\r\n    function getUserByAddress() external view returns(string memory, uint8)\r\n    {\r\n        uint id = UserID[msg.sender];\r\n        string memory user_name = users[id].name;\r\n        uint8 user_age = users[id].age;\r\n        return (user_name, user_age);\r\n    }\r\n\r\n\r\n}",
  "sourcePath": "C:\\Users\\User\\Documents\\Projects\\Ethereum\\Ethereum-Dev\\Smiley\\contracts\\SmileyContract.sol",
  "compiler": {
    "name": "solc",
    "version": "0.4.24+commit.e67f0147.Emscripten.clang"
  },
  "schemaVersion": "2.0.1",
  "updatedAt": "2018-11-18T22:52:50.916Z"
}