{
  "contractName": "SmileyDonation",
  "abi": [
    {
      "constant": true,
      "inputs": [
        {
          "name": "",
          "type": "address"
        }
      ],
      "name": "balance_ong",
      "outputs": [
        {
          "name": "",
          "type": "uint256"
        }
      ],
      "payable": false,
      "stateMutability": "view",
      "type": "function"
    },
    {
      "constant": true,
      "inputs": [
        {
          "name": "",
          "type": "uint256"
        }
      ],
      "name": "users",
      "outputs": [
        {
          "name": "name",
          "type": "string"
        },
        {
          "name": "age",
          "type": "uint8"
        },
        {
          "name": "points",
          "type": "uint32"
        },
        {
          "name": "level",
          "type": "uint32"
        },
        {
          "name": "readyTime",
          "type": "uint32"
        }
      ],
      "payable": false,
      "stateMutability": "view",
      "type": "function"
    },
    {
      "constant": true,
      "inputs": [],
      "name": "getUserByAddress",
      "outputs": [
        {
          "name": "",
          "type": "string"
        },
        {
          "name": "",
          "type": "uint8"
        }
      ],
      "payable": false,
      "stateMutability": "view",
      "type": "function"
    },
    {
      "constant": false,
      "inputs": [
        {
          "name": "_name",
          "type": "string"
        },
        {
          "name": "_age",
          "type": "uint8"
        }
      ],
      "name": "createUser",
      "outputs": [],
      "payable": false,
      "stateMutability": "nonpayable",
      "type": "function"
    },
    {
      "constant": true,
      "inputs": [],
      "name": "owner",
      "outputs": [
        {
          "name": "",
          "type": "address"
        }
      ],
      "payable": false,
      "stateMutability": "view",
      "type": "function"
    },
    {
      "constant": true,
      "inputs": [
        {
          "name": "",
          "type": "address"
        }
      ],
      "name": "UserID",
      "outputs": [
        {
          "name": "",
          "type": "uint256"
        }
      ],
      "payable": false,
      "stateMutability": "view",
      "type": "function"
    },
    {
      "constant": true,
      "inputs": [
        {
          "name": "",
          "type": "address"
        }
      ],
      "name": "donations",
      "outputs": [
        {
          "name": "",
          "type": "uint256"
        }
      ],
      "payable": false,
      "stateMutability": "view",
      "type": "function"
    },
    {
      "anonymous": false,
      "inputs": [
        {
          "indexed": false,
          "name": "name",
          "type": "string"
        },
        {
          "indexed": false,
          "name": "age",
          "type": "uint8"
        }
      ],
      "name": "NewUser",
      "type": "event"
    },
    {
      "constant": false,
      "inputs": [
        {
          "name": "ong_address",
          "type": "address"
        }
      ],
      "name": "donate",
      "outputs": [],
      "payable": false,
      "stateMutability": "nonpayable",
      "type": "function"
    },
    {
      "constant": true,
      "inputs": [
        {
          "name": "_from",
          "type": "address"
        }
      ],
      "name": "getViews",
      "outputs": [
        {
          "name": "",
          "type": "uint256"
        }
      ],
      "payable": false,
      "stateMutability": "view",
      "type": "function"
    },
    {
      "constant": true,
      "inputs": [
        {
          "name": "_from",
          "type": "address"
        }
      ],
      "name": "getBalanceOfONG",
      "outputs": [
        {
          "name": "",
          "type": "uint256"
        }
      ],
      "payable": false,
      "stateMutability": "view",
      "type": "function"
    }
  ],
  "bytecode": "0x608060405262015180600655336000806101000a81548173ffffffffffffffffffffffffffffffffffffffff021916908373ffffffffffffffffffffffffffffffffffffffff160217905550610d6b8061005a6000396000f3006080604052600436106100a3576000357c0100000000000000000000000000000000000000000000000000000000900463ffffffff168062362a95146100a857806323cf2e38146100eb578063365b98b2146101425780634073b1321461022e57806346096130146102cb578063519fdebb146103415780638da5cb5b146103985780638f1c1fb7146103ef578063b097b90a14610446578063cc6cb19a1461049d575b600080fd5b3480156100b457600080fd5b506100e9600480360381019080803573ffffffffffffffffffffffffffffffffffffffff1690602001909291905050506104f4565b005b3480156100f757600080fd5b5061012c600480360381019080803573ffffffffffffffffffffffffffffffffffffffff16906020019092919050505061054e565b6040518082815260200191505060405180910390f35b34801561014e57600080fd5b5061016d60048036038101908080359060200190929190505050610566565b60405180806020018660ff1660ff1681526020018563ffffffff1663ffffffff1681526020018463ffffffff1663ffffffff1681526020018363ffffffff1663ffffffff168152602001828103825287818151815260200191508051906020019080838360005b838110156101ef5780820151818401526020810190506101d4565b50505050905090810190601f16801561021c5780820380516001836020036101000a031916815260200191505b50965050505050505060405180910390f35b34801561023a57600080fd5b50610243610680565b60405180806020018360ff1660ff168152602001828103825284818151815260200191508051906020019080838360005b8381101561028f578082015181840152602081019050610274565b50505050905090810190601f1680156102bc5780820380516001836020036101000a031916815260200191505b50935050505060405180910390f35b3480156102d757600080fd5b5061033f600480360381019080803590602001908201803590602001908080601f0160208091040260200160405190810160405280939291908181526020018383808284378201915050505050509192919290803560ff1690602001909291905050506107c3565b005b34801561034d57600080fd5b50610382600480360381019080803573ffffffffffffffffffffffffffffffffffffffff169060200190929190505050610a79565b6040518082815260200191505060405180910390f35b3480156103a457600080fd5b506103ad610ac2565b604051808273ffffffffffffffffffffffffffffffffffffffff1673ffffffffffffffffffffffffffffffffffffffff16815260200191505060405180910390f35b3480156103fb57600080fd5b50610430600480360381019080803573ffffffffffffffffffffffffffffffffffffffff169060200190929190505050610ae7565b6040518082815260200191505060405180910390f35b34801561045257600080fd5b50610487600480360381019080803573ffffffffffffffffffffffffffffffffffffffff169060200190929190505050610b30565b6040518082815260200191505060405180910390f35b3480156104a957600080fd5b506104de600480360381019080803573ffffffffffffffffffffffffffffffffffffffff169060200190929190505050610b48565b6040518082815260200191505060405180910390f35b6104fc610b60565b600560008273ffffffffffffffffffffffffffffffffffffffff1673ffffffffffffffffffffffffffffffffffffffff1681526020019081526020016000206000815480929190600101919050555050565b60056020528060005260406000206000915090505481565b60018181548110151561057557fe5b9060005260206000209060020201600091509050806000018054600181600116156101000203166002900480601f0160208091040260200160405190810160405280929190818152602001828054600181600116156101000203166002900480156106215780601f106105f657610100808354040283529160200191610621565b820191906000526020600020905b81548152906001019060200180831161060457829003601f168201915b5050505050908060010160009054906101000a900460ff16908060010160019054906101000a900463ffffffff16908060010160059054906101000a900463ffffffff16908060010160099054906101000a900463ffffffff16905085565b606060008060606000600260003373ffffffffffffffffffffffffffffffffffffffff1673ffffffffffffffffffffffffffffffffffffffff1681526020019081526020016000205492506001838154811015156106da57fe5b90600052602060002090600202016000018054600181600116156101000203166002900480601f01602080910402602001604051908101604052809291908181526020018280546001816001161561010002031660029004801561077f5780601f106107545761010080835404028352916020019161077f565b820191906000526020600020905b81548152906001019060200180831161076257829003601f168201915b5050505050915060018381548110151561079557fe5b906000526020600020906002020160010160009054906101000a900460ff1690508181945094505050509091565b600080600360003373ffffffffffffffffffffffffffffffffffffffff1673ffffffffffffffffffffffffffffffffffffffff1681526020019081526020016000205414151561081257600080fd5b60018060a0604051908101604052808681526020018560ff168152602001600063ffffffff168152602001600063ffffffff1681526020014263ffffffff1681525090806001815401808255809150509060018203906000526020600020906002020160009091929091909150600082015181600001908051906020019061089b929190610c9a565b5060208201518160010160006101000a81548160ff021916908360ff16021790555060408201518160010160016101000a81548163ffffffff021916908363ffffffff16021790555060608201518160010160056101000a81548163ffffffff021916908363ffffffff16021790555060808201518160010160096101000a81548163ffffffff021916908363ffffffff160217905550505003905080600260003373ffffffffffffffffffffffffffffffffffffffff1673ffffffffffffffffffffffffffffffffffffffff16815260200190815260200160002081905550600360003373ffffffffffffffffffffffffffffffffffffffff1673ffffffffffffffffffffffffffffffffffffffff168152602001908152602001600020600081548092919060010191905055507f2caeb6d6d613aa1e496d28e3f8ff81f87b13b87af489a5718df2c9bd001394b0838360405180806020018360ff1660ff168152602001828103825284818151815260200191508051906020019080838360005b83811015610a39578082015181840152602081019050610a1e565b50505050905090810190601f168015610a665780820380516001836020036101000a031916815260200191505b50935050505060405180910390a1505050565b6000600460008373ffffffffffffffffffffffffffffffffffffffff1673ffffffffffffffffffffffffffffffffffffffff168152602001908152602001600020549050919050565b6000809054906101000a900473ffffffffffffffffffffffffffffffffffffffff1681565b6000600560008373ffffffffffffffffffffffffffffffffffffffff1673ffffffffffffffffffffffffffffffffffffffff168152602001908152602001600020549050919050565b60026020528060005260406000206000915090505481565b60046020528060005260406000206000915090505481565b600080600260003373ffffffffffffffffffffffffffffffffffffffff1673ffffffffffffffffffffffffffffffffffffffff168152602001908152602001600020549150600182815481101515610bb457fe5b90600052602060002090600202019050610bcd81610c34565b1515610bd857600080fd5b600460003373ffffffffffffffffffffffffffffffffffffffff1673ffffffffffffffffffffffffffffffffffffffff16815260200190815260200160002060008154809291906001019190505550610c3081610c5b565b5050565b6000428260010160099054906101000a900463ffffffff1663ffffffff1611159050919050565b60065442018160010160098282829054906101000a900463ffffffff160192506101000a81548163ffffffff021916908363ffffffff16021790555050565b828054600181600116156101000203166002900490600052602060002090601f016020900481019282601f10610cdb57805160ff1916838001178555610d09565b82800160010185558215610d09579182015b82811115610d08578251825591602001919060010190610ced565b5b509050610d169190610d1a565b5090565b610d3c91905b80821115610d38576000816000905550600101610d20565b5090565b905600a165627a7a72305820e20b591b48f1b43152a109da49915451f281f073d6cb56eda49298c614cd818d0029",
  "source": "pragma solidity ^0.4.24;\r\n\r\nimport './SmileyContract.sol';\r\n\r\ncontract SmileyDonation is SmileyContract\r\n{\r\n    mapping (address => uint) public donations;\r\n    mapping (address => uint) public balance_ong;\r\n\r\n    uint cooldowntime = 1 days;\r\n\r\n\r\n\r\n    function donate(address ong_address) public\r\n    {\r\n        seeVideo();\r\n        balance_ong[ong_address]++;\r\n    }\r\n\r\n    function seeVideo() internal\r\n    {\r\n        uint id = UserID[msg.sender];\r\n        User storage currentUser = users[id];\r\n        require(_isUserReadyToDonate(currentUser));\r\n        donations[msg.sender]++;\r\n        _triggerWaitingTime(currentUser);\r\n\r\n    }\r\n\r\n    function _isUserReadyToDonate(User storage _currentUser) internal view returns(bool)\r\n    {\r\n        return (_currentUser.readyTime <= now);\r\n    }\r\n\r\n    function _triggerWaitingTime(User storage _currentUser) internal\r\n    {\r\n        _currentUser.readyTime += uint32(now + cooldowntime);\r\n    }\r\n\r\n    function getViews(address _from) public view returns(uint)\r\n    {\r\n        return donations[_from];\r\n    }\r\n\r\n    function getBalanceOfONG(address _from) public view returns(uint)\r\n    {\r\n        return balance_ong[_from];\r\n    }\r\n}\r\n",
  "sourcePath": "C:\\Users\\User\\Documents\\Projects\\Ethereum\\Ethereum-Dev\\Smiley\\contracts\\SmileyDonation.sol",
  "compiler": {
    "name": "solc",
    "version": "0.4.24+commit.e67f0147.Emscripten.clang"
  },
  "schemaVersion": "2.0.1",
  "updatedAt": "2018-11-18T22:52:50.914Z"
}